{"abi":[{"type":"constructor","inputs":[{"name":"_router","type":"address","internalType":"address"},{"name":"_factory","type":"address","internalType":"address"},{"name":"_weth","type":"address","internalType":"address"},{"name":"_feeRecipient","type":"address","internalType":"address"}],"stateMutability":"nonpayable"},{"type":"receive","stateMutability":"payable"},{"type":"function","name":"BPS_DENOMINATOR","inputs":[],"outputs":[{"name":"","type":"uint256","internalType":"uint256"}],"stateMutability":"view"},{"type":"function","name":"MAX_DEADLINE_WINDOW","inputs":[],"outputs":[{"name":"","type":"uint256","internalType":"uint256"}],"stateMutability":"view"},{"type":"function","name":"MAX_FEE_BPS","inputs":[],"outputs":[{"name":"","type":"uint256","internalType":"uint256"}],"stateMutability":"view"},{"type":"function","name":"WETH","inputs":[],"outputs":[{"name":"","type":"address","internalType":"address"}],"stateMutability":"view"},{"type":"function","name":"addLiquidity","inputs":[{"name":"tokenA","type":"address","internalType":"address"},{"name":"tokenB","type":"address","internalType":"address"},{"name":"amountADesired","type":"uint256","internalType":"uint256"},{"name":"amountBDesired","type":"uint256","internalType":"uint256"},{"name":"amountAMin","type":"uint256","internalType":"uint256"},{"name":"amountBMin","type":"uint256","internalType":"uint256"},{"name":"to","type":"address","internalType":"address"},{"name":"deadline","type":"uint256","internalType":"uint256"}],"outputs":[{"name":"amountA","type":"uint256","internalType":"uint256"},{"name":"amountB","type":"uint256","internalType":"uint256"},{"name":"liquidity","type":"uint256","internalType":"uint256"}],"stateMutability":"nonpayable"},{"type":"function","name":"addLiquidityETH","inputs":[{"name":"token","type":"address","internalType":"address"},{"name":"amountTokenDesired","type":"uint256","internalType":"uint256"},{"name":"amountTokenMin","type":"uint256","internalType":"uint256"},{"name":"amountETHMin","type":"uint256","internalType":"uint256"},{"name":"to","type":"address","internalType":"address"},{"name":"deadline","type":"uint256","internalType":"uint256"}],"outputs":[{"name":"amountToken","type":"uint256","internalType":"uint256"},{"name":"amountETH","type":"uint256","internalType":"uint256"},{"name":"liquidity","type":"uint256","internalType":"uint256"}],"stateMutability":"payable"},{"type":"function","name":"createPairIfNotExists","inputs":[{"name":"tokenA","type":"address","internalType":"address"},{"name":"tokenB","type":"address","internalType":"address"}],"outputs":[{"name":"pair","type":"address","internalType":"address"}],"stateMutability":"nonpayable"},{"type":"function","name":"factory","inputs":[],"outputs":[{"name":"","type":"address","internalType":"address"}],"stateMutability":"view"},{"type":"function","name":"feeBps","inputs":[],"outputs":[{"name":"","type":"uint256","internalType":"uint256"}],"stateMutability":"view"},{"type":"function","name":"feeRecipient","inputs":[],"outputs":[{"name":"","type":"address","internalType":"address"}],"stateMutability":"view"},{"type":"function","name":"getAmountIn","inputs":[{"name":"amountOut","type":"uint256","internalType":"uint256"},{"name":"reserveIn","type":"uint256","internalType":"uint256"},{"name":"reserveOut","type":"uint256","internalType":"uint256"}],"outputs":[{"name":"amountIn","type":"uint256","internalType":"uint256"}],"stateMutability":"view"},{"type":"function","name":"getAmountOut","inputs":[{"name":"amountIn","type":"uint256","internalType":"uint256"},{"name":"reserveIn","type":"uint256","internalType":"uint256"},{"name":"reserveOut","type":"uint256","internalType":"uint256"}],"outputs":[{"name":"amountOut","type":"uint256","internalType":"uint256"}],"stateMutability":"view"},{"type":"function","name":"getAmountsIn","inputs":[{"name":"amountOut","type":"uint256","internalType":"uint256"},{"name":"path","type":"address[]","internalType":"address[]"}],"outputs":[{"name":"amounts","type":"uint256[]","internalType":"uint256[]"}],"stateMutability":"view"},{"type":"function","name":"getAmountsOut","inputs":[{"name":"amountIn","type":"uint256","internalType":"uint256"},{"name":"path","type":"address[]","internalType":"address[]"}],"outputs":[{"name":"amounts","type":"uint256[]","internalType":"uint256[]"}],"stateMutability":"view"},{"type":"function","name":"owner","inputs":[],"outputs":[{"name":"","type":"address","internalType":"address"}],"stateMutability":"view"},{"type":"function","name":"quote","inputs":[{"name":"amountA","type":"uint256","internalType":"uint256"},{"name":"reserveA","type":"uint256","internalType":"uint256"},{"name":"reserveB","type":"uint256","internalType":"uint256"}],"outputs":[{"name":"amountB","type":"uint256","internalType":"uint256"}],"stateMutability":"view"},{"type":"function","name":"removeLiquidity","inputs":[{"name":"tokenA","type":"address","internalType":"address"},{"name":"tokenB","type":"address","internalType":"address"},{"name":"liquidity","type":"uint256","internalType":"uint256"},{"name":"amountAMin","type":"uint256","internalType":"uint256"},{"name":"amountBMin","type":"uint256","internalType":"uint256"},{"name":"to","type":"address","internalType":"address"},{"name":"deadline","type":"uint256","internalType":"uint256"}],"outputs":[{"name":"amountA","type":"uint256","internalType":"uint256"},{"name":"amountB","type":"uint256","internalType":"uint256"}],"stateMutability":"nonpayable"},{"type":"function","name":"removeLiquidityETH","inputs":[{"name":"token","type":"address","internalType":"address"},{"name":"liquidity","type":"uint256","internalType":"uint256"},{"name":"amountTokenMin","type":"uint256","internalType":"uint256"},{"name":"amountETHMin","type":"uint256","internalType":"uint256"},{"name":"to","type":"address","internalType":"address"},{"name":"deadline","type":"uint256","internalType":"uint256"}],"outputs":[{"name":"amountToken","type":"uint256","internalType":"uint256"},{"name":"amountETH","type":"uint256","internalType":"uint256"}],"stateMutability":"nonpayable"},{"type":"function","name":"removeLiquidityETHSupportingFeeOnTransferTokens","inputs":[{"name":"token","type":"address","internalType":"address"},{"name":"liquidity","type":"uint256","internalType":"uint256"},{"name":"amountTokenMin","type":"uint256","internalType":"uint256"},{"name":"amountETHMin","type":"uint256","internalType":"uint256"},{"name":"to","type":"address","internalType":"address"},{"name":"deadline","type":"uint256","internalType":"uint256"}],"outputs":[{"name":"amountETH","type":"uint256","internalType":"uint256"}],"stateMutability":"nonpayable"},{"type":"function","name":"removeLiquidityETHWithPermit","inputs":[{"name":"token","type":"address","internalType":"address"},{"name":"liquidity","type":"uint256","internalType":"uint256"},{"name":"amountTokenMin","type":"uint256","internalType":"uint256"},{"name":"amountETHMin","type":"uint256","internalType":"uint256"},{"name":"to","type":"address","internalType":"address"},{"name":"deadline","type":"uint256","internalType":"uint256"},{"name":"approveMax","type":"bool","internalType":"bool"},{"name":"v","type":"uint8","internalType":"uint8"},{"name":"r","type":"bytes32","internalType":"bytes32"},{"name":"s","type":"bytes32","internalType":"bytes32"}],"outputs":[{"name":"amountToken","type":"uint256","internalType":"uint256"},{"name":"amountETH","type":"uint256","internalType":"uint256"}],"stateMutability":"nonpayable"},{"type":"function","name":"removeLiquidityETHWithPermitSupportingFeeOnTransferTokens","inputs":[{"name":"token","type":"address","internalType":"address"},{"name":"liquidity","type":"uint256","internalType":"uint256"},{"name":"amountTokenMin","type":"uint256","internalType":"uint256"},{"name":"amountETHMin","type":"uint256","internalType":"uint256"},{"name":"to","type":"address","internalType":"address"},{"name":"deadline","type":"uint256","internalType":"uint256"},{"name":"approveMax","type":"bool","internalType":"bool"},{"name":"v","type":"uint8","internalType":"uint8"},{"name":"r","type":"bytes32","internalType":"bytes32"},{"name":"s","type":"bytes32","internalType":"bytes32"}],"outputs":[{"name":"amountETH","type":"uint256","internalType":"uint256"}],"stateMutability":"nonpayable"},{"type":"function","name":"removeLiquidityWithPermit","inputs":[{"name":"tokenA","type":"address","internalType":"address"},{"name":"tokenB","type":"address","internalType":"address"},{"name":"liquidity","type":"uint256","internalType":"uint256"},{"name":"amountAMin","type":"uint256","internalType":"uint256"},{"name":"amountBMin","type":"uint256","internalType":"uint256"},{"name":"to","type":"address","internalType":"address"},{"name":"deadline","type":"uint256","internalType":"uint256"},{"name":"approveMax","type":"bool","internalType":"bool"},{"name":"v","type":"uint8","internalType":"uint8"},{"name":"r","type":"bytes32","internalType":"bytes32"},{"name":"s","type":"bytes32","internalType":"bytes32"}],"outputs":[{"name":"amountA","type":"uint256","internalType":"uint256"},{"name":"amountB","type":"uint256","internalType":"uint256"}],"stateMutability":"nonpayable"},{"type":"function","name":"renounceOwnership","inputs":[],"outputs":[],"stateMutability":"nonpayable"},{"type":"function","name":"setFeeBps","inputs":[{"name":"newFeeBps","type":"uint256","internalType":"uint256"}],"outputs":[],"stateMutability":"nonpayable"},{"type":"function","name":"setFeeRecipient","inputs":[{"name":"newRecipient","type":"address","internalType":"address"}],"outputs":[],"stateMutability":"nonpayable"},{"type":"function","name":"swapETHForExactTokens","inputs":[{"name":"amountOut","type":"uint256","internalType":"uint256"},{"name":"path","type":"address[]","internalType":"address[]"},{"name":"to","type":"address","internalType":"address"},{"name":"deadline","type":"uint256","internalType":"uint256"}],"outputs":[{"name":"amounts","type":"uint256[]","internalType":"uint256[]"}],"stateMutability":"payable"},{"type":"function","name":"swapExactETHForTokens","inputs":[{"name":"amountOutMin","type":"uint256","internalType":"uint256"},{"name":"path","type":"address[]","internalType":"address[]"},{"name":"to","type":"address","internalType":"address"},{"name":"deadline","type":"uint256","internalType":"uint256"}],"outputs":[{"name":"amounts","type":"uint256[]","internalType":"uint256[]"}],"stateMutability":"payable"},{"type":"function","name":"swapExactETHForTokensSupportingFeeOnTransferTokens","inputs":[{"name":"amountOutMin","type":"uint256","internalType":"uint256"},{"name":"path","type":"address[]","internalType":"address[]"},{"name":"to","type":"address","internalType":"address"},{"name":"deadline","type":"uint256","internalType":"uint256"}],"outputs":[],"stateMutability":"payable"},{"type":"function","name":"swapExactTokensForETH","inputs":[{"name":"amountIn","type":"uint256","internalType":"uint256"},{"name":"amountOutMin","type":"uint256","internalType":"uint256"},{"name":"path","type":"address[]","internalType":"address[]"},{"name":"to","type":"address","internalType":"address"},{"name":"deadline","type":"uint256","internalType":"uint256"}],"outputs":[{"name":"amounts","type":"uint256[]","internalType":"uint256[]"}],"stateMutability":"nonpayable"},{"type":"function","name":"swapExactTokensForETHSupportingFeeOnTransferTokens","inputs":[{"name":"amountIn","type":"uint256","internalType":"uint256"},{"name":"amountOutMin","type":"uint256","internalType":"uint256"},{"name":"path","type":"address[]","internalType":"address[]"},{"name":"to","type":"address","internalType":"address"},{"name":"deadline","type":"uint256","internalType":"uint256"}],"outputs":[],"stateMutability":"nonpayable"},{"type":"function","name":"swapExactTokensForTokens","inputs":[{"name":"amountIn","type":"uint256","internalType":"uint256"},{"name":"amountOutMin","type":"uint256","internalType":"uint256"},{"name":"path","type":"address[]","internalType":"address[]"},{"name":"to","type":"address","internalType":"address"},{"name":"deadline","type":"uint256","internalType":"uint256"}],"outputs":[{"name":"amounts","type":"uint256[]","internalType":"uint256[]"}],"stateMutability":"nonpayable"},{"type":"function","name":"swapExactTokensForTokensSupportingFeeOnTransferTokens","inputs":[{"name":"amountIn","type":"uint256","internalType":"uint256"},{"name":"amountOutMin","type":"uint256","internalType":"uint256"},{"name":"path","type":"address[]","internalType":"address[]"},{"name":"to","type":"address","internalType":"address"},{"name":"deadline","type":"uint256","internalType":"uint256"}],"outputs":[],"stateMutability":"nonpayable"},{"type":"function","name":"swapTokensForExactETH","inputs":[{"name":"amountOut","type":"uint256","internalType":"uint256"},{"name":"amountInMax","type":"uint256","internalType":"uint256"},{"name":"path","type":"address[]","internalType":"address[]"},{"name":"to","type":"address","internalType":"address"},{"name":"deadline","type":"uint256","internalType":"uint256"}],"outputs":[{"name":"amounts","type":"uint256[]","internalType":"uint256[]"}],"stateMutability":"nonpayable"},{"type":"function","name":"swapTokensForExactTokens","inputs":[{"name":"amountOut","type":"uint256","internalType":"uint256"},{"name":"amountInMax","type":"uint256","internalType":"uint256"},{"name":"path","type":"address[]","internalType":"address[]"},{"name":"to","type":"address","internalType":"address"},{"name":"deadline","type":"uint256","internalType":"uint256"}],"outputs":[{"name":"amounts","type":"uint256[]","internalType":"uint256[]"}],"stateMutability":"nonpayable"},{"type":"function","name":"transferOwnership","inputs":[{"name":"newOwner","type":"address","internalType":"address"}],"outputs":[],"stateMutability":"nonpayable"},{"type":"function","name":"uniswapFactory","inputs":[],"outputs":[{"name":"","type":"address","internalType":"contract IUniswapV2Factory"}],"stateMutability":"view"},{"type":"function","name":"uniswapRouter","inputs":[],"outputs":[{"name":"","type":"address","internalType":"contract IUniswapV2Router02"}],"stateMutability":"view"},{"type":"event","name":"FeeBpsUpdated","inputs":[{"name":"oldFeeBps","type":"uint256","indexed":false,"internalType":"uint256"},{"name":"newFeeBps","type":"uint256","indexed":false,"internalType":"uint256"}],"anonymous":false},{"type":"event","name":"FeeRecipientUpdated","inputs":[{"name":"oldRecipient","type":"address","indexed":true,"internalType":"address"},{"name":"newRecipient","type":"address","indexed":true,"internalType":"address"}],"anonymous":false},{"type":"event","name":"OwnershipTransferred","inputs":[{"name":"previousOwner","type":"address","indexed":true,"internalType":"address"},{"name":"newOwner","type":"address","indexed":true,"internalType":"address"}],"anonymous":false},{"type":"error","name":"ETHTransferFailed","inputs":[]},{"type":"error","name":"ExcessiveInputAmount","inputs":[]},{"type":"error","name":"FeeTooHigh","inputs":[]},{"type":"error","name":"InsufficientLiquidityBalance","inputs":[]},{"type":"error","name":"InsufficientOutputAmount","inputs":[]},{"type":"error","name":"InvalidDeadline","inputs":[]},{"type":"error","name":"InvalidMsgValue","inputs":[]},{"type":"error","name":"InvalidPath","inputs":[]},{"type":"error","name":"OwnableInvalidOwner","inputs":[{"name":"owner","type":"address","internalType":"address"}]},{"type":"error","name":"OwnableUnauthorizedAccount","inputs":[{"name":"account","type":"address","internalType":"address"}]},{"type":"error","name":"PairDoesNotExist","inputs":[]},{"type":"error","name":"ReentrancyGuardReentrantCall","inputs":[]},{"type":"error","name":"SameToken","inputs":[]},{"type":"error","name":"ZeroAddress","inputs":[]}],"bytecode":{"object":"0x60e0604052346102935761001d610014610380565b929190916104d9565b610025610298565b6171166107d38239608051818181610b5401528181611773015281816117e101528181611a6701528181611ef301528181611f6201528181612101015281816123ec0152818161245c01528181612748015281816127b601528181612a0801528181612a750152818161304c01528181613193015281816136f40152818161375601528181613b0e01528181613bec01528181614097015281816140fe0152818161427b0152818161444c015281816144bb015281816146b7015281816148ee01528181614a3501528181614f4401528181614fa10152818161525d015281816152cd0152818161548b01528181615738015281816157a601528181615d2901528181615da401528181615e03015281816162d601528181616371015281816163d0015281816167ef015261685b015260a051818181610d430152818161164e0152818161226f01528181612cc201528181612d5b01528181612eb1015281816147c80152818161515701528181615450015261559d015260c051818181610dff0152818161161a015281816116810152818161181001528181611e210152818161293501528181612e7d01528181612ee401528181613114015281816131c10152818161328f01528181613a3c01528181613b7801528181613c7501528181613fdb0152818161405e01528181614794015281816147fb015281816149b601528181614a6301528181614b3101528181614e7e01528181614f0b01528181615569015281816155d0015281816157d5015281816161cb0152818161633b015281816164030152818161672c015281816167b801528181616a1101528181616be10152616f57015261711690f35b61029e565b60405190565b5f80fd5b601f801991011690565b634e487b7160e01b5f52604160045260245ffd5b906102ca906102a2565b810190811060018060401b038211176102e257604052565b6102ac565b906102fa6102f3610298565b92836102c0565b565b5f80fd5b60018060a01b031690565b61031490610300565b90565b6103208161030b565b0361032757565b5f80fd5b9050519061033882610317565b565b60808183031261037b57610350825f830161032b565b92610378610361846020850161032b565b9361036f816040860161032b565b9360600161032b565b90565b6102fc565b61039e6178e980380380610393816102e7565b92833981019061033a565b90919293565b5f1b90565b906103b55f19916103a4565b9181191691161790565b90565b90565b90565b6103dc6103d76103e1926103bf565b6103c5565b6103c2565b90565b90565b906103fc6103f7610403926103c8565b6103e4565b82546103a9565b9055565b90565b61041e61041961042392610407565b6103c5565b610300565b90565b61042f9061040a565b90565b5f0190565b61044b61044661045092610300565b6103c5565b610300565b90565b61045c90610437565b90565b61046890610453565b90565b61047490610437565b90565b6104809061046b565b90565b9061049460018060a01b03916103a4565b9181191691161790565b6104a790610437565b90565b6104b39061049e565b90565b90565b906104ce6104c96104d5926104aa565b6104b6565b8254610483565b9055565b929190926104e633610638565b6104f2600560026103e7565b8061050d6105076105025f610426565b61030b565b9161030b565b1480156105ae575b801561058c575b801561056a575b61054e5761054c9361053761053f9261045f565b608052610477565b60a05260c05260016104b9565b565b5f63d92e233d60e01b81528061056660048201610432565b0390fd5b508261058661058061057b5f610426565b61030b565b9161030b565b14610523565b50816105a86105a261059d5f610426565b61030b565b9161030b565b1461051c565b50836105ca6105c46105bf5f610426565b61030b565b9161030b565b14610515565b90565b6105e76105e26105ec926105d0565b6103c5565b6103c2565b90565b6105f960016105d3565b90565b61061061060b610615926103c2565b6103c5565b6103c2565b90565b9061062d610628610634926105fc565b6103e4565b82546103a9565b9055565b61064190610687565b61066361064c6105ef565b5f61065d61065861072b565b61073f565b01610618565b565b61066e9061030b565b9052565b9190610685905f60208501940190610665565b565b806106a261069c6106975f610426565b61030b565b9161030b565b146106b2576106b090610773565b565b6106d56106be5f610426565b5f918291631e4fbdf760e01b835260048301610672565b0390fd5b5f90565b90565b90565b6106f76106f26106fc926106dd565b6103a4565b6106e0565b90565b6107287f9b779b17422d0df92223018b32b4d1fa46e071723d6817e2486d003becc55f006106e3565b90565b6107336106d9565b5061073c6106ff565b90565b90565b5f1c90565b60018060a01b031690565b61075e61076391610742565b610747565b90565b6107709054610752565b90565b61077c5f610766565b610786825f6104b9565b906107ba6107b47f8be0079c531659141344cd1fd0a4f28419497f9722a3daafe3b4186f6b6457e0936104aa565b916104aa565b916107c3610298565b806107cd81610432565b0390a356fe6080604052600436101561001d575b366113735761001b616a08565b005b6100275f35610276565b806302751cec14610271578063054d50d41461026c57806318cbafe5146102675780631f00ca74146102625780632195995c1461025d57806324a9d8531461025857806338ed173914610253578063469048401461024e5780634a25d94a146102495780634cd5ece1146102445780635b0d59841461023f5780635c11d7951461023a578063715018a61461023557806372c27b6214610230578063735de9f71461022b578063791ac947146102265780637ff36ab51461022157806385f8c2591461021c5780638803dbee146102175780638bdb2afa146102125780638da5cb5b1461020d578063ad5c464814610208578063ad615dec14610203578063af2979eb146101fe578063b6f9de95146101f9578063baa2abde146101f4578063c2b86d60146101ef578063c45a0155146101ea578063d06ca61f146101e5578063d55be8c6146101e0578063ded9382a146101db578063e1a45218146101d6578063e74b981b146101d1578063e8e33700146101cc578063f2fde38b146101c7578063f305d719146101c25763fb3bdb410361000e57611344565b61130f565b6112dc565b61129a565b6111b4565b611161565b6110e6565b6110b1565b611044565b61100f565b610fda565b610f65565b610ec8565b610e8c565b610e56565b610e21565b610dc8565b610d93565b610d05565b610ccf565b610ca0565b610c04565b610bcf565b610b1f565b610ace565b610a94565b610a4d565b61097a565b610911565b6108dc565b61083e565b610809565b61077b565b610620565b61059e565b61040e565b610382565b60e01c90565b60405190565b5f80fd5b5f80fd5b5f80fd5b60018060a01b031690565b6102a29061028e565b90565b6102ae81610299565b036102b557565b5f80fd5b905035906102c6826102a5565b565b90565b6102d4816102c8565b036102db57565b5f80fd5b905035906102ec826102cb565b565b909160c08284031261034d57610306835f84016102b9565b9261031481602085016102df565b9261032282604083016102df565b9261034a61033384606085016102df565b9361034181608086016102b9565b9360a0016102df565b90565b610286565b61035b906102c8565b9052565b91602061038092949361037960408201965f830190610352565b0190610352565b565b346103ba576103a16103953660046102ee565b94939093929192611a11565b906103b66103ad61027c565b9283928361035f565b0390f35b610282565b90916060828403126103f4576103f16103da845f85016102df565b936103e881602086016102df565b936040016102df565b90565b610286565b919061040c905f60208501940190610352565b565b3461043f5761043b61042a6104243660046103bf565b91611a52565b61043261027c565b918291826103f9565b0390f35b610282565b5f80fd5b5f80fd5b5f80fd5b909182601f8301121561048a5781359167ffffffffffffffff831161048557602001926020830284011161048057565b61044c565b610448565b610444565b9060a0828203126104fa576104a6815f84016102df565b926104b482602085016102df565b9260408101359167ffffffffffffffff83116104f5576104d9846104f2948401610450565b9390946104e981606086016102b9565b936080016102df565b90565b61028a565b610286565b5190565b60209181520190565b60200190565b61051b906102c8565b9052565b9061052c81602093610512565b0190565b60200190565b9061055361054d610546846104ff565b8093610503565b9261050c565b905f5b8181106105635750505090565b90919261057c610576600192865161051f565b94610530565b9101919091610556565b61059b9160208201915f818403910152610536565b90565b346105d5576105d16105c06105b436600461048f565b949390939291926120ac565b6105c861027c565b91829182610586565b0390f35b610282565b91909160408184031261061b576105f3835f83016102df565b92602082013567ffffffffffffffff8111610616576106129201610450565b9091565b61028a565b610286565b346106515761064d61063c6106363660046105da565b916120ed565b61064461027c565b91829182610586565b0390f35b610282565b151590565b61066481610656565b0361066b57565b5f80fd5b9050359061067c8261065b565b565b60ff1690565b61068d8161067e565b0361069457565b5f80fd5b905035906106a582610684565b565b90565b6106b3816106a7565b036106ba57565b5f80fd5b905035906106cb826106aa565b565b919061016083820312610776576106e6815f85016102b9565b926106f482602083016102b9565b9261070283604084016102df565b9261071081606085016102df565b9261071e82608083016102df565b9261072c8360a084016102b9565b9261073a8160c085016102df565b926107488260e0830161066f565b9261077361075a846101008501610698565b936107698161012086016106be565b93610140016106be565b90565b610286565b346107b9576107a061078e3660046106cd565b999890989791979692969593956125e9565b906107b56107ac61027c565b9283928361035f565b0390f35b610282565b5f9103126107c857565b610286565b1c90565b90565b6107e49060086107e993026107cd565b6107d1565b90565b906107f791546107d4565b90565b61080660025f906107ec565b90565b34610839576108193660046107be565b6108356108246107fa565b61082c61027c565b918291826103f9565b0390f35b610282565b346108755761087161086061085436600461048f565b949390939291926128a5565b61086861027c565b91829182610586565b0390f35b610282565b60018060a01b031690565b61089590600861089a93026107cd565b61087a565b90565b906108a89154610885565b90565b6108b760015f9061089d565b90565b6108c390610299565b9052565b91906108da905f602085019401906108ba565b565b3461090c576108ec3660046107be565b6109086108f76108ab565b6108ff61027c565b918291826108c7565b0390f35b610282565b346109485761094461093361092736600461048f565b94939093929192612c89565b61093b61027c565b91829182610586565b0390f35b610282565b91906040838203126109755780610969610972925f86016102b9565b936020016102b9565b90565b610286565b346109ab576109a761099661099036600461094d565b90612ca6565b61099e61027c565b918291826108c7565b0390f35b610282565b61014081830312610a48576109c7825f83016102b9565b926109d583602084016102df565b926109e381604085016102df565b926109f182606083016102df565b926109ff83608084016102b9565b92610a0d8160a085016102df565b92610a1b8260c0830161066f565b92610a45610a2c8460e08501610698565b93610a3b8161010086016106be565b93610120016106be565b90565b610286565b34610a8a57610a86610a75610a633660046109b0565b989790979691969592959493946135a5565b610a7d61027c565b918291826103f9565b0390f35b610282565b5f0190565b34610ac957610ab3610aa736600461048f565b94939093929192613863565b610abb61027c565b80610ac581610a8f565b0390f35b610282565b34610afc57610ade3660046107be565b610ae6613898565b610aee61027c565b80610af881610a8f565b0390f35b610282565b90602082820312610b1a57610b17915f016102df565b90565b610286565b34610b4d57610b37610b32366004610b01565b6139c1565b610b3f61027c565b80610b4981610a8f565b0390f35b610282565b7f000000000000000000000000000000000000000000000000000000000000000090565b90565b610b8d610b88610b929261028e565b610b76565b61028e565b90565b610b9e90610b79565b90565b610baa90610b95565b90565b610bb690610ba1565b9052565b9190610bcd905f60208501940190610bad565b565b34610bff57610bdf3660046107be565b610bfb610bea610b52565b610bf261027c565b91829182610bba565b0390f35b610282565b34610c3957610c23610c1736600461048f565b94939093929192613e12565b610c2b61027c565b80610c3581610a8f565b0390f35b610282565b91608083830312610c9b57610c55825f85016102df565b9260208101359167ffffffffffffffff8311610c9657610c7a84610c93948401610450565b939094610c8a81604086016102b9565b936060016102df565b90565b61028a565b610286565b610ccb610cba610cb1366004610c3e565b9392909261424e565b610cc261027c565b91829182610586565b0390f35b34610d0057610cfc610ceb610ce53660046103bf565b91614266565b610cf361027c565b918291826103f9565b0390f35b610282565b34610d3c57610d38610d27610d1b36600461048f565b94939093929192614674565b610d2f61027c565b91829182610586565b0390f35b610282565b7f000000000000000000000000000000000000000000000000000000000000000090565b610d6e90610b95565b90565b610d7a90610d65565b9052565b9190610d91905f60208501940190610d71565b565b34610dc357610da33660046107be565b610dbf610dae610d41565b610db661027c565b91829182610d7e565b0390f35b610282565b34610df857610dd83660046107be565b610df4610de361468d565b610deb61027c565b918291826108c7565b0390f35b610282565b7f000000000000000000000000000000000000000000000000000000000000000090565b34610e5157610e313660046107be565b610e4d610e3c610dfd565b610e4461027c565b918291826108c7565b0390f35b610282565b34610e8757610e83610e72610e6c3660046103bf565b916146a2565b610e7a61027c565b918291826103f9565b0390f35b610282565b34610ec357610ebf610eae610ea23660046102ee565b94939093929192614e0b565b610eb661027c565b918291826103f9565b0390f35b610282565b610edf610ed6366004610c3e565b93929092615100565b610ee761027c565b80610ef181610a8f565b0390f35b60e081830312610f6057610f0b825f83016102b9565b92610f1983602084016102b9565b92610f2781604085016102df565b92610f3582606083016102df565b92610f5d610f4684608085016102df565b93610f548160a086016102b9565b9360c0016102df565b90565b610286565b34610f9d57610f84610f78366004610ef5565b9594909493919361541e565b90610f99610f9061027c565b9283928361035f565b0390f35b610282565b90565b610fb9610fb4610fbe92610fa2565b610b76565b6102c8565b90565b610fcc610258610fa5565b90565b610fd7610fc1565b90565b3461100a57610fea3660046107be565b611006610ff5610fcf565b610ffd61027c565b918291826103f9565b0390f35b610282565b3461103f5761101f3660046107be565b61103b61102a615442565b61103261027c565b918291826108c7565b0390f35b610282565b346110755761107161106061105a3660046105da565b91615477565b61106861027c565b91829182610586565b0390f35b610282565b90565b61109161108c6110969261107a565b610b76565b6102c8565b90565b6110a3603261107d565b90565b6110ae611099565b90565b346110e1576110c13660046107be565b6110dd6110cc6110a6565b6110d461027c565b918291826103f9565b0390f35b610282565b346111245761110b6110f93660046109b0565b98979097969196959295949394615a12565b9061112061111761027c565b9283928361035f565b0390f35b610282565b90565b61114061113b61114592611129565b610b76565b6102c8565b90565b61115361271061112c565b90565b61115e611148565b90565b34611191576111713660046107be565b61118d61117c611156565b61118461027c565b918291826103f9565b0390f35b610282565b906020828203126111af576111ac915f016102b9565b90565b610286565b346111e2576111cc6111c7366004611196565b615b33565b6111d461027c565b806111de81610a8f565b0390f35b610282565b91906101008382031261126357611200815f85016102b9565b9261120e82602083016102b9565b9261121c83604084016102df565b9261122a81606085016102df565b9261123882608083016102df565b926112606112498460a085016102df565b936112578160c086016102b9565b9360e0016102df565b90565b610286565b604090611291611298949695939661128760608401985f850190610352565b6020830190610352565b0190610352565b565b346112d7576112d36112bf6112b03660046111e7565b969590959491949392936160e3565b6112ca93919361027c565b93849384611268565b0390f35b610282565b3461130a576112f46112ef366004611196565b616176565b6112fc61027c565b8061130681610a8f565b0390f35b610282565b61134061132c6113203660046102ee565b949390939291926166a0565b61133793919361027c565b93849384611268565b0390f35b61136f61135e611355366004610c3e565b939290926169f0565b61136661027c565b91829182610586565b0390f35b5f80fd5b5f90565b906113939796959493929161138e616a8a565b6115f5565b909161139d616ac3565b565b5f80fd5b601f801991011690565b634e487b7160e01b5f52604160045260245ffd5b906113cb906113a3565b810190811067ffffffffffffffff8211176113e557604052565b6113ad565b60e01b90565b905051906113fd826102a5565b565b9060208282031261141857611415915f016113f0565b90565b610286565b91602061143e92949361143760408201965f8301906108ba565b01906108ba565b565b61144861027c565b3d5f823e3d90fd5b90565b61146761146261146c92611450565b610b76565b61028e565b90565b61147890611453565b90565b61148490610b79565b90565b6114909061147b565b90565b61149c90610b95565b90565b6114a890610b95565b90565b905051906114b88261065b565b565b906020828203126114d3576114d0915f016114ab565b90565b610286565b60409061150161150894969593966114f760608401985f8501906108ba565b60208301906108ba565b0190610352565b565b61151390610b79565b90565b61151f9061150a565b90565b61152b90610b95565b90565b91602061154f92949361154860408201965f8301906108ba565b0190610352565b565b9050519061155e826102cb565b565b9190604083820312611588578061157c611585925f8601611551565b93602001611551565b90565b610286565b949290979695939160e08601985f87016115a6916108ba565b602086016115b3916108ba565b604085016115c091610352565b606084016115cd91610352565b608083016115da91610352565b60a082016115e7916108ba565b60c0016115f391610352565b565b9795949296939197505061160883616b0c565b61161187616b77565b8661164461163e7f0000000000000000000000000000000000000000000000000000000000000000610299565b91610299565b146119f5576116727f0000000000000000000000000000000000000000000000000000000000000000610d65565b602063e6a439059189906116b87f0000000000000000000000000000000000000000000000000000000000000000946116c36116ac61027c565b968795869485946113ea565b84526004840161141d565b03915afa9081156119f0575f916119c2575b50806116f16116eb6116e65f61146f565b610299565b91610299565b146119a65780602061170b6117068a94611487565b611493565b6323b872dd906117385f33936117436117233061149f565b9861172c61027c565b998a97889687956113ea565b8552600485016114d8565b03925af19081156119a1576117669261176192611975575b50611516565b611522565b602063095ea7b3916117977f0000000000000000000000000000000000000000000000000000000000000000610ba1565b906117b55f8b956117c06117a961027c565b978896879586946113ea565b84526004840161152e565b03925af1801561197057604094611850925f92611944575b5061185b6118057f0000000000000000000000000000000000000000000000000000000000000000610ba1565b9463baa2abde928c977f00000000000000000000000000000000000000000000000000000000000000009c9261183a3061149f565b929361184461027c565b9e8f9b8c9a8b996113ea565b89526004890161158d565b03925af192831561193f575f80919094611906575b5061187f611884919495611516565b611522565b90602063a9059cbb9282906118ac5f89966118b76118a061027c565b988996879586946113ea565b84526004840161152e565b03925af1918215611901576118d3926118d5575b508390616bd8565b565b6118f59060203d81116118fa575b6118ed81836113c1565b8101906114ba565b6118cb565b503d6118e3565b611440565b61187f945061188491506119309060403d8111611938575b61192881836113c1565b810190611560565b915093611870565b503d61191e565b611440565b6119649060203d8111611969575b61195c81836113c1565b8101906114ba565b6117d8565b503d611952565b611440565b6119959060203d811161199a575b61198d81836113c1565b8101906114ba565b61175b565b503d611983565b611440565b5f63317f12fd60e21b8152806119be60048201610a8f565b0390fd5b6119e3915060203d81116119e9575b6119db81836113c1565b8101906113ff565b5f6116d5565b503d6119d1565b611440565b5f63100dac0560e11b815280611a0d60048201610a8f565b0390fd5b90611a309594939291611a22611377565b611a2a611377565b9061137b565b9091565b90602082820312611a4d57611a4a915f01611551565b90565b610286565b90602091611a5e611377565b50611aab611a8b7f0000000000000000000000000000000000000000000000000000000000000000610ba1565b91611ab663054d50d4919496611a9f61027c565b978896879586956113ea565b855260048501611268565b03915afa908115611afa575f91611acc575b5090565b611aed915060203d8111611af3575b611ae581836113c1565b810190611a34565b5f611ac8565b503d611adb565b611440565b606090565b90611b1b969594939291611b16616a8a565b611dca565b90611b24616ac3565b565b5090565b90565b611b41611b3c611b4692611b2a565b610b76565b6102c8565b90565b634e487b7160e01b5f52601160045260245ffd5b611b6c611b72919392936102c8565b926102c8565b8203918211611b7d57565b611b49565b634e487b7160e01b5f52603260045260245ffd5b9190811015611ba6576020020190565b611b82565b35611bb5816102a5565b90565b611bcc611bc7611bd192611450565b610b76565b6102c8565b90565b90611be7611be061027c565b92836113c1565b565b67ffffffffffffffff8111611c015760208091020190565b6113ad565b90929192611c1b611c1682611be9565b611bd4565b9381855260208086019202830192818411611c5857915b838310611c3f5750505050565b60208091611c4d8486611551565b815201920191611c32565b61044c565b9080601f83011215611c7b57816020611c7893519101611c06565b90565b610444565b90602082820312611cb0575f82015167ffffffffffffffff8111611cab57611ca89201611c5d565b90565b61028a565b610286565b60209181520190565b90565b611cca90610299565b9052565b90611cdb81602093611cc1565b0190565b50611cee9060208101906102b9565b90565b60200190565b91611d0582611d0b92611cb5565b92611cbe565b90815f905b828210611d1e575050505090565b90919293611d40611d3a600192611d358886611cdf565b611cce565b95611cf1565b920190929192611d10565b91611d9491611d9b96989795608095611d7c611d8994611d7260a08901955f8a0190610352565b6020880190610352565b8583036040870152611cf7565b9660608301906108ba565b0190610352565b565b90611da7826104ff565b811015611db8576020809102010190565b611b82565b611dc790516102c8565b90565b96959192949693909350611ddd82616b0c565b611de8858290616cd9565b611e19611e148683611e0e611dfe8a8790611b26565b611e086001611b2d565b90611b5d565b91611b96565b611bab565b611e4b611e457f0000000000000000000000000000000000000000000000000000000000000000610299565b91610299565b0361209057611e6c611e678683611e615f611bb8565b91611b96565b611bab565b93611e7e611e7986611516565b611522565b60206323b872dd913390611eae5f611e953061149f565b95611eb988611ea261027c565b988997889687956113ea565b8552600485016114d8565b03925af1801561208b57611ee692611ee192611edb9261205f575b5087616d19565b95611516565b611522565b602063095ea7b391611f177f0000000000000000000000000000000000000000000000000000000000000000610ba1565b90611f355f8995611f40611f2961027c565b978896879586946113ea565b84526004840161152e565b03925af194851561205a57611fba611faf935f9793889461202e575b50611f867f0000000000000000000000000000000000000000000000000000000000000000610ba1565b956318cbafe593979991611f993061149f565b9192611fa361027c565b9b8c9a8b998a986113ea565b885260048801611d4b565b03925af1801561202957612005915f91612007575b5092611fff611ffa85611ff4611fe4886104ff565b611fee6001611b2d565b90611b5d565b90611d9d565b611dbd565b90616bd8565b565b61202391503d805f833e61201b81836113c1565b810190611c80565b5f611fcf565b611440565b61204e9060203d8111612053575b61204681836113c1565b8101906114ba565b611f5c565b503d61203c565b611440565b61207f9060203d8111612084575b61207781836113c1565b8101906114ba565b611ed4565b503d61206d565b611440565b5f6320db826760e01b8152806120a860048201610a8f565b0390fd5b906120c295949392916120bd611aff565b611b04565b90565b916120ea9391926120dd60408201945f830190610352565b6020818503910152611cf7565b90565b905f916120f8611aff565b506121456121257f0000000000000000000000000000000000000000000000000000000000000000610ba1565b91612150631f00ca7491949661213961027c565b978896879586956113ea565b8552600485016120c5565b03915afa908115612188575f91612166575b5090565b61218291503d805f833e61217a81836113c1565b810190611c80565b5f612162565b611440565b906121aa9c9b9a9998979695949392916121a5616a8a565b612247565b90916121b4616ac3565b565b5f9103126121c057565b610286565b6121ce9061067e565b9052565b6121db906106a7565b9052565b949290979695939160e08601985f87016121f8916108ba565b60208601612205916108ba565b6040850161221291610352565b6060840161221f91610352565b6080830161222c916121c5565b60a08201612239916121d2565b60c001612245916121d2565b565b9b9299919598939b9a9496979a505061225f8a616b0c565b61226a858a90616e07565b6122937f0000000000000000000000000000000000000000000000000000000000000000610d65565b602063e6a439059187906122b98d946122c46122ad61027c565b968795869485946113ea565b84526004840161141d565b03915afa9081156125e4575f916125b6575b5092836122f36122ed6122e85f61146f565b610299565b91610299565b1461259a575f14612594575f195b9361231361230e85611487565b611493565b9063d505accf9233938d6123263061149f565b9890929396853b1561258f575f9761235295899561235d9461234661027c565b9d8e9b8c9a8b996113ea565b8952600489016121df565b03925af191821561258a57899261255e575b50602061238361237e83611487565b611493565b6323b872dd906123b05f33936123bb61239b3061149f565b986123a461027c565b998a97889687956113ea565b8552600485016114d8565b03925af1908115612559576123de926123d99261252d575b50611516565b611522565b91602063095ea7b3936124107f0000000000000000000000000000000000000000000000000000000000000000610ba1565b9061242e5f8c9761243961242261027c565b998a96879586946113ea565b84526004840161152e565b03925af1908115612528576040976124a2955f956124ad946124fc575b506124807f0000000000000000000000000000000000000000000000000000000000000000610ba1565b9763baa2abde95999b939091929361249661027c565b9c8d9b8c9a8b996113ea565b89526004890161158d565b03925af19081156124f7575f809190926124c7575b509091565b90506124ea915060403d81116124f0575b6124e281836113c1565b810190611560565b5f6124c2565b503d6124d8565b611440565b61251c9060203d8111612521575b61251481836113c1565b8101906114ba565b612456565b503d61250a565b611440565b61254d9060203d8111612552575b61254581836113c1565b8101906114ba565b6123d3565b503d61253b565b611440565b61257d905f3d8111612583575b61257581836113c1565b8101906121b6565b5f61236f565b503d61256b565b611440565b61139f565b8a612301565b5f63317f12fd60e21b8152806125b260048201610a8f565b0390fd5b6125d7915060203d81116125dd575b6125cf81836113c1565b8101906113ff565b5f6122d6565b503d6125c5565b611440565b9061260d9a9998979695949392916125ff611377565b612607611377565b9061218d565b9091565b90612628969594939291612623616a8a565b612633565b90612631616ac3565b565b9591939492955061264382616b0c565b61264e868690616cd9565b6126a461266d61266888886126625f611bb8565b91611b96565b611bab565b61269e61269989896126936126838d8d90611b26565b61268d6001611b2d565b90611b5d565b91611b96565b611bab565b90616e07565b6126c06126bb87876126b55f611bb8565b91611b96565b611bab565b906126d26126cd83611516565b611522565b60206323b872dd9133906127025f6126e93061149f565b9561270d886126f661027c565b988997889687956113ea565b8552600485016114d8565b03925af180156128a05761273a926127359261272f92612874575b5084616d19565b92611516565b611522565b90602063095ea7b39261276c7f0000000000000000000000000000000000000000000000000000000000000000610ba1565b9061278a5f859661279561277e61027c565b988996879586946113ea565b84526004840161152e565b03925af1801561286f575f966127fb94889461280693612843575b506127da7f0000000000000000000000000000000000000000000000000000000000000000610ba1565b966338ed173994989a929091926127ef61027c565b9b8c9a8b998a986113ea565b885260048801611d4b565b03925af190811561283e575f9161281c575b5090565b61283891503d805f833e61283081836113c1565b810190611c80565b5f612818565b611440565b6128639060203d8111612868575b61285b81836113c1565b8101906114ba565b6127b0565b503d612851565b611440565b6128949060203d8111612899575b61288c81836113c1565b8101906114ba565b612728565b503d612882565b611440565b906128bb95949392916128b6611aff565b612611565b90565b906128d59695949392916128d0616a8a565b6128e0565b906128de616ac3565b565b96959091939496506128f181616b0c565b6128fc838690616cd9565b61292d6129288487612922612912888b90611b26565b61291c6001611b2d565b90611b5d565b91611b96565b611bab565b61295f6129597f0000000000000000000000000000000000000000000000000000000000000000610299565b91610299565b03612c6d5761298061297b84876129755f611bb8565b91611b96565b611bab565b9361299261298d86611516565b611522565b9060206323b872dd9233906129c35f6129aa3061149f565b966129ce876129b761027c565b998a97889687956113ea565b8552600485016114d8565b03925af1918215612c68576129e992612c3c575b5085616d19565b946129fb6129f686611516565b611522565b602063095ea7b391612a2c7f0000000000000000000000000000000000000000000000000000000000000000610ba1565b90612a4a5f8b95612a55612a3e61027c565b978896879586946113ea565b84526004840161152e565b03925af18015612c37575f94612ac3928692612c0b575b50612ace612a997f0000000000000000000000000000000000000000000000000000000000000000610ba1565b94634a25d94a92968b9991612aad3061149f565b9192612ab761027c565b9b8c9a8b998a986113ea565b885260048801611d4b565b03925af18015612c0657612b19915f91612be4575b5094612b13612b0e87612b08612af88a6104ff565b612b026001611b2d565b90611b5d565b90611d9d565b611dbd565b90616bd8565b612b34612b2f85612b295f611bb8565b90611d9d565b611dbd565b9180612b48612b42856102c8565b916102c8565b11612b53575b505050565b612b66612b61602093611516565b611522565b612b925f612b7a63a9059cbb963395611b5d565b95612b9d612b8661027c565b978896879586946113ea565b84526004840161152e565b03925af18015612bdf57612bb3575b8080612b4e565b612bd39060203d8111612bd8575b612bcb81836113c1565b8101906114ba565b612bac565b503d612bc1565b611440565b612c0091503d805f833e612bf881836113c1565b810190611c80565b5f612ae3565b611440565b612c2b9060203d8111612c30575b612c2381836113c1565b8101906114ba565b612a6c565b503d612c19565b611440565b612c5c9060203d8111612c61575b612c5481836113c1565b8101906114ba565b6129e2565b503d612c4a565b611440565b5f6320db826760e01b815280612c8560048201610a8f565b0390fd5b90612c9f9594939291612c9a611aff565b6128be565b90565b5f90565b919091612cb1612ca2565b50612cbd818490616e07565b612ce67f0000000000000000000000000000000000000000000000000000000000000000610d65565b602063e6a43905918390612d0c8794612d17612d0061027c565b968795869485946113ea565b84526004840161141d565b03915afa908115612e29575f91612dfb575b509283612d46612d40612d3b5f61146f565b610299565b91610299565b14612d50575b5050565b602091929350612d7f7f0000000000000000000000000000000000000000000000000000000000000000610d65565b612da25f63c9c65396959395612dad612d9661027c565b978896879586946113ea565b84526004840161141d565b03925af1908115612df6575f91612dc8575b50905f80612d4c565b612de9915060203d8111612def575b612de181836113c1565b8101906113ff565b5f612dbf565b503d612dd7565b611440565b612e1c915060203d8111612e22575b612e1481836113c1565b8101906113ff565b5f612d29565b503d612e0a565b611440565b90612e499a999897969594939291612e44616a8a565b612e54565b90612e52616ac3565b565b9a99919596939497909a98929850612e6b87616b0c565b612e748b616b77565b8a612ea7612ea17f0000000000000000000000000000000000000000000000000000000000000000610299565b91610299565b1461358957612ed57f0000000000000000000000000000000000000000000000000000000000000000610d65565b602063e6a43905918d90612f1b7f000000000000000000000000000000000000000000000000000000000000000094612f26612f0f61027c565b968795869485946113ea565b84526004840161141d565b03915afa908115613584575f91613556575b509384612f55612f4f612f4a5f61146f565b610299565b91610299565b1461353a575f14613534575f195b92612f75612f7086611487565b611493565b9063d505accf923393612f873061149f565b968b929396853b1561352f575f97612fb3958995612fbe94612fa761027c565b9c8d9b8c9a8b996113ea565b8952600489016121df565b03925af1801561352a576134fe575b50612fdf612fda82611487565b611493565b9060206323b872dd9233906130105f612ff73061149f565b9661301b8a61300461027c565b998a97889687956113ea565b8552600485016114d8565b03925af19081156134f95761303e92613039926134cd575b50611516565b611522565b90602063095ea7b3926130707f0000000000000000000000000000000000000000000000000000000000000000610ba1565b9061308e5f879661309961308261027c565b988996879586946113ea565b84526004840161152e565b03925af19182156134c8576130f39261349c575b5060206130c16130bc8a611516565b611522565b6370a08231906130e86130d33061149f565b926130dc61027c565b968794859384936113ea565b8352600483016108c7565b03915afa80156134975761316f925f91613469575b5093602061313d6131387f0000000000000000000000000000000000000000000000000000000000000000611516565b611522565b6370a082319061316461314f3061149f565b9261315861027c565b978894859384936113ea565b8352600483016108c7565b03915afa8015613464575f8a61320c613201936040978491613436575b509a6131b77f0000000000000000000000000000000000000000000000000000000000000000610ba1565b9563baa2abde93977f00000000000000000000000000000000000000000000000000000000000000009a926131eb3061149f565b92936131f561027c565b9c8d9b8c9a8b996113ea565b89526004890161158d565b03925af1801561343157613404575b50613264602061323261322d88611516565b611522565b6370a08231906132596132443061149f565b9261324d61027c565b958694859384936113ea565b8352600483016108c7565b03915afa80156133ff576132ea92613284925f926133cf575b5090611b5d565b9260206132b86132b37f0000000000000000000000000000000000000000000000000000000000000000611516565b611522565b6370a08231906132df6132ca3061149f565b926132d361027c565b968794859384936113ea565b8352600483016108c7565b03915afa9081156133ca5761331161331c92613317926020955f9261339b575b5090611b5d565b96611516565b611522565b9263a9059cbb936133415f85939661334c61333561027c565b988996879586946113ea565b84526004840161152e565b03925af1918215613396576133689261336a575b508390616bd8565b565b61338a9060203d811161338f575b61338281836113c1565b8101906114ba565b613360565b503d613378565b611440565b6133bc919250863d81116133c3575b6133b481836113c1565b810190611a34565b905f61330a565b503d6133aa565b611440565b6133f191925060203d81116133f8575b6133e981836113c1565b810190611a34565b905f61327d565b503d6133df565b611440565b6134249060403d811161342a575b61341c81836113c1565b810190611560565b5061321b565b503d613412565b611440565b613457915060203d811161345d575b61344f81836113c1565b810190611a34565b5f61318c565b503d613445565b611440565b61348a915060203d8111613490575b61348281836113c1565b810190611a34565b5f613108565b503d613478565b611440565b6134bc9060203d81116134c1575b6134b481836113c1565b8101906114ba565b6130ad565b503d6134aa565b611440565b6134ed9060203d81116134f2575b6134e581836113c1565b8101906114ba565b613033565b503d6134db565b611440565b61351d905f3d8111613523575b61351581836113c1565b8101906121b6565b5f612fcd565b503d61350b565b611440565b61139f565b85612f63565b5f63317f12fd60e21b81528061355260048201610a8f565b0390fd5b613577915060203d811161357d575b61356f81836113c1565b8101906113ff565b5f612f38565b503d613565565b611440565b5f63100dac0560e11b8152806135a160048201610a8f565b0390fd5b906135bf9998979695949392916135ba611377565b612e2e565b90565b906135d895949392916135d3616a8a565b6135e2565b6135e0616ac3565b565b91949092936135f082616b0c565b6135fb868690616cd9565b61365161361a613615888861360f5f611bb8565b91611b96565b611bab565b61364b61364689896136406136308d8d90611b26565b61363a6001611b2d565b90611b5d565b91611b96565b611bab565b90616e07565b61366d61366887876136625f611bb8565b91611b96565b611bab565b9261367f61367a85611516565b611522565b60206323b872dd9133906136af5f6136963061149f565b956136ba886136a361027c565b988997889687956113ea565b8552600485016114d8565b03925af1801561385e576136e7926136e2926136dc92613832575b5086616d19565b94611516565b611522565b602063095ea7b3916137187f0000000000000000000000000000000000000000000000000000000000000000610ba1565b906137365f889561374161372a61027c565b978896879586946113ea565b84526004840161152e565b03925af1801561382d57613801575b5061377a7f0000000000000000000000000000000000000000000000000000000000000000610ba1565b92635c11d79590949695919295843b156137fc575f966137ae9488946137b9936137a261027c565b9b8c9a8b998a986113ea565b885260048801611d4b565b03925af180156137f7576137cb575b50565b6137ea905f3d81116137f0575b6137e281836113c1565b8101906121b6565b5f6137c8565b503d6137d8565b611440565b61139f565b6138219060203d8111613826575b61381981836113c1565b8101906114ba565b613750565b503d61380f565b611440565b6138529060203d8111613857575b61384a81836113c1565b8101906114ba565b6136d5565b503d613840565b611440565b9061387195949392916135c2565b565b61387b616ea2565b613883613885565b565b6138966138915f61146f565b616ef0565b565b6138a0613873565b565b6138b3906138ae616ea2565b613935565b565b5f1c90565b6138c66138cb916138b5565b6107d1565b90565b6138d890546138ba565b90565b5f1b90565b906138ec5f19916138db565b9181191691161790565b61390a61390561390f926102c8565b610b76565b6102c8565b90565b90565b9061392a613925613931926138f6565b613912565b82546138e0565b9055565b8061394f613949613944611099565b6102c8565b916102c8565b116139a5576139a39061396260026138ce565b817f5ec5620e288c4be955ccb6cfb3d55431a8fed5c4c96ffacc4b9506360695f64e9161399961399061027c565b9283928361035f565b0390a16002613915565b565b5f63cd4e616760e01b8152806139bd60048201610a8f565b0390fd5b6139ca906138a2565b565b906139e295949392916139dd616a8a565b6139ec565b6139ea616ac3565b565b9291926139f886616b0c565b613a03848490616cd9565b613a34613a2f8585613a29613a19898990611b26565b613a236001611b2d565b90611b5d565b91611b96565b611bab565b613a66613a607f0000000000000000000000000000000000000000000000000000000000000000610299565b91610299565b03613df657613a87613a828585613a7c5f611bb8565b91611b96565b611bab565b90613a99613a9483611516565b611522565b60206323b872dd913390613ac95f613ab03061149f565b95613ad488613abd61027c565b988997889687956113ea565b8552600485016114d8565b03925af18015613df157613b0192613afc92613af692613dc5575b5084616d19565b92611516565b611522565b602063095ea7b391613b327f0000000000000000000000000000000000000000000000000000000000000000610ba1565b90613b505f8695613b5b613b4461027c565b978896879586946113ea565b84526004840161152e565b03925af18015613dc057613d94575b50613bd36020613ba1613b9c7f0000000000000000000000000000000000000000000000000000000000000000611516565b611522565b6370a0823190613bc8613bb33061149f565b92613bbc61027c565b958694859384936113ea565b8352600483016108c7565b03915afa908115613d8f575f91613d61575b5095613c107f0000000000000000000000000000000000000000000000000000000000000000610ba1565b9163791ac9479093959490613c243061149f565b9295843b15613d5c575f96613c4d948894613c5893613c4161027c565b9b8c9a8b998a986113ea565b885260048801611d4b565b03925af18015613d5757613d2b575b50613cd06020613c9e613c997f0000000000000000000000000000000000000000000000000000000000000000611516565b611522565b6370a0823190613cc5613cb03061149f565b92613cb961027c565b958694859384936113ea565b8352600483016108c7565b03915afa928315613d2657613cf693613cf0925f91613cf8575b50611b5d565b90616bd8565b565b613d19915060203d8111613d1f575b613d1181836113c1565b810190611a34565b5f613cea565b503d613d07565b611440565b613d4a905f3d8111613d50575b613d4281836113c1565b8101906121b6565b5f613c67565b503d613d38565b611440565b61139f565b613d82915060203d8111613d88575b613d7a81836113c1565b810190611a34565b5f613be5565b503d613d70565b611440565b613db49060203d8111613db9575b613dac81836113c1565b8101906114ba565b613b6a565b503d613da2565b611440565b613de59060203d8111613dea575b613ddd81836113c1565b8101906114ba565b613aef565b503d613dd3565b611440565b5f6320db826760e01b815280613e0e60048201610a8f565b0390fd5b90613e2095949392916139cc565b565b90613e389594939291613e33616a8a565b613f9b565b90613e41616ac3565b565b613e52613e58919392936102c8565b926102c8565b91613e648382026102c8565b928184041490151715613e7357565b611b49565b634e487b7160e01b5f52601260045260245ffd5b613e98613e9e916102c8565b916102c8565b908115613ea9570490565b613e78565b613eba613ebf916138b5565b61087a565b90565b613ecc9054613eae565b90565b905090565b613edf5f8092613ecf565b0190565b613eec90613ed4565b90565b67ffffffffffffffff8111613f0d57613f096020916113a3565b0190565b6113ad565b90613f24613f1f83613eef565b611bd4565b918252565b606090565b3d5f14613f4957613f3e3d613f12565b903d5f602084013e5b565b613f51613f29565b90613f47565b90613f87613f9291613f9996989795606095613f7a60808701935f880190610352565b8583036020870152611cf7565b9660408301906108ba565b0190610352565b565b9491929493909350613fac82616b0c565b613fb7838690616cd9565b613fd3613fce8487613fc85f611bb8565b91611b96565b611bab565b614005613fff7f0000000000000000000000000000000000000000000000000000000000000000610299565b91610299565b036142325734936140316140233461401d60026138ce565b90613e43565b61402b611148565b90613e8c565b8061404461403e5f611bb8565b916102c8565b116141c8575b5061405485616f4f565b60206140876140827f0000000000000000000000000000000000000000000000000000000000000000611516565b611522565b9563095ea7b3966140d45f6140bb7f0000000000000000000000000000000000000000000000000000000000000000610ba1565b93996140df6140c861027c565b9b8c96879586946113ea565b84526004840161152e565b03925af19182156141c3575f9561414f93614197575b5061415a6141227f0000000000000000000000000000000000000000000000000000000000000000610ba1565b91637ff36ab59561413589949794611bb8565b94979991909161414361027c565b9a8b998a9889976113ea565b875260048701613f57565b03925af1908115614192575f91614170575b5090565b61418c91503d805f833e61418481836113c1565b810190611c80565b5f61416c565b611440565b6141b79060203d81116141bc575b6141af81836113c1565b8101906114ba565b6140f5565b503d6141a5565b611440565b945061420c5f806141da348990611b5d565b976141e56001613ec2565b906141ee61027c565b90816141f981613ee3565b03925af1614205613f2e565b5015610656565b614216575f61404a565b5f63b12d13eb60e01b81528061422e60048201610a8f565b0390fd5b5f6320db826760e01b81528061424a60048201610a8f565b0390fd5b906142639493929161425e611aff565b613e22565b90565b90602091614272611377565b506142bf61429f7f0000000000000000000000000000000000000000000000000000000000000000610ba1565b916142ca6385f8c2599194966142b361027c565b978896879586956113ea565b855260048501611268565b03915afa90811561430e575f916142e0575b5090565b614301915060203d8111614307575b6142f981836113c1565b810190611a34565b5f6142dc565b503d6142ef565b611440565b9061432a969594939291614325616a8a565b614335565b90614333616ac3565b565b96959092939491965061434781616b0c565b614352848690616cd9565b6143a861437161436c86886143665f611bb8565b91611b96565b611bab565b6143a261439d87896143976143878b8d90611b26565b6143916001611b2d565b90611b5d565b91611b96565b611bab565b90616e07565b6143c46143bf85876143b95f611bb8565b91611b96565b611bab565b966143d66143d189611516565b611522565b9060206323b872dd9233906144075f6143ee3061149f565b96614412876143fb61027c565b998a97889687956113ea565b8552600485016114d8565b03925af191821561466f5761442d92614643575b5088616d19565b9461443f61443a89611516565b611522565b602063095ea7b3916144707f0000000000000000000000000000000000000000000000000000000000000000610ba1565b9061448e5f8b9561449961448261027c565b978896879586946113ea565b84526004840161152e565b03925af194851561463e5761450c614501935f97938894614612575b506144df7f0000000000000000000000000000000000000000000000000000000000000000610ba1565b95638803dbee93978b9a929091926144f561027c565b9b8c9a8b998a986113ea565b885260048801611d4b565b03925af190811561460d575f916145eb575b509261453b614536856145305f611bb8565b90611d9d565b611dbd565b918061454f614549856102c8565b916102c8565b1161455a575b505050565b61456d614568602093611516565b611522565b6145995f61458163a9059cbb963395611b5d565b956145a461458d61027c565b978896879586946113ea565b84526004840161152e565b03925af180156145e6576145ba575b8080614555565b6145da9060203d81116145df575b6145d281836113c1565b8101906114ba565b6145b3565b503d6145c8565b611440565b61460791503d805f833e6145ff81836113c1565b810190611c80565b5f61451e565b611440565b6146329060203d8111614637575b61462a81836113c1565b8101906114ba565b6144b5565b503d614620565b611440565b6146639060203d8111614668575b61465b81836113c1565b8101906114ba565b614426565b503d614651565b611440565b9061468a9594939291614685611aff565b614313565b90565b614695612ca2565b5061469f5f613ec2565b90565b906020916146ae611377565b506146fb6146db7f0000000000000000000000000000000000000000000000000000000000000000610ba1565b9161470663ad615dec9194966146ef61027c565b978896879586956113ea565b855260048501611268565b03915afa90811561474a575f9161471c575b5090565b61473d915060203d8111614743575b61473581836113c1565b810190611a34565b5f614718565b503d61472b565b611440565b90614766969594939291614761616a8a565b614771565b9061476f616ac3565b565b969592949390965061478283616b0c565b61478b87616b77565b866147be6147b87f0000000000000000000000000000000000000000000000000000000000000000610299565b91610299565b14614def576147ec7f0000000000000000000000000000000000000000000000000000000000000000610d65565b602063e6a439059189906148327f00000000000000000000000000000000000000000000000000000000000000009461483d61482661027c565b968795869485946113ea565b84526004840161141d565b03915afa908115614dea575f91614dbc575b508061486b6148656148605f61146f565b610299565b91610299565b14614da05761488161487c82611487565b611493565b9060206323b872dd9233906148b25f6148993061149f565b966148bd8a6148a661027c565b998a97889687956113ea565b8552600485016114d8565b03925af1908115614d9b576148e0926148db92614d6f575b50611516565b611522565b90602063095ea7b3926149127f0000000000000000000000000000000000000000000000000000000000000000610ba1565b906149305f879661493b61492461027c565b988996879586946113ea565b84526004840161152e565b03925af1918215614d6a5761499592614d3e575b50602061496361495e8a611516565b611522565b6370a082319061498a6149753061149f565b9261497e61027c565b968794859384936113ea565b8352600483016108c7565b03915afa8015614d3957614a11925f91614d0b575b509360206149df6149da7f0000000000000000000000000000000000000000000000000000000000000000611516565b611522565b6370a0823190614a066149f13061149f565b926149fa61027c565b978894859384936113ea565b8352600483016108c7565b03915afa8015614d06575f8a614aae614aa3936040978491614cd8575b509a614a597f0000000000000000000000000000000000000000000000000000000000000000610ba1565b9563baa2abde93977f00000000000000000000000000000000000000000000000000000000000000009a92614a8d3061149f565b9293614a9761027c565b9c8d9b8c9a8b996113ea565b89526004890161158d565b03925af18015614cd357614ca6575b50614b066020614ad4614acf88611516565b611522565b6370a0823190614afb614ae63061149f565b92614aef61027c565b958694859384936113ea565b8352600483016108c7565b03915afa8015614ca157614b8c92614b26925f92614c71575b5090611b5d565b926020614b5a614b557f0000000000000000000000000000000000000000000000000000000000000000611516565b611522565b6370a0823190614b81614b6c3061149f565b92614b7561027c565b968794859384936113ea565b8352600483016108c7565b03915afa908115614c6c57614bb3614bbe92614bb9926020955f92614c3d575b5090611b5d565b96611516565b611522565b9263a9059cbb93614be35f859396614bee614bd761027c565b988996879586946113ea565b84526004840161152e565b03925af1918215614c3857614c0a92614c0c575b508390616bd8565b565b614c2c9060203d8111614c31575b614c2481836113c1565b8101906114ba565b614c02565b503d614c1a565b611440565b614c5e919250863d8111614c65575b614c5681836113c1565b810190611a34565b905f614bac565b503d614c4c565b611440565b614c9391925060203d8111614c9a575b614c8b81836113c1565b810190611a34565b905f614b1f565b503d614c81565b611440565b614cc69060403d8111614ccc575b614cbe81836113c1565b810190611560565b50614abd565b503d614cb4565b611440565b614cf9915060203d8111614cff575b614cf181836113c1565b810190611a34565b5f614a2e565b503d614ce7565b611440565b614d2c915060203d8111614d32575b614d2481836113c1565b810190611a34565b5f6149aa565b503d614d1a565b611440565b614d5e9060203d8111614d63575b614d5681836113c1565b8101906114ba565b61494f565b503d614d4c565b611440565b614d8f9060203d8111614d94575b614d8781836113c1565b8101906114ba565b6148d5565b503d614d7d565b611440565b5f63317f12fd60e21b815280614db860048201610a8f565b0390fd5b614ddd915060203d8111614de3575b614dd581836113c1565b8101906113ff565b5f61484f565b503d614dcb565b611440565b5f63100dac0560e11b815280614e0760048201610a8f565b0390fd5b90614e219594939291614e1c611377565b61474f565b90565b90614e3994939291614e34616a8a565b614e43565b614e41616ac3565b565b909193614e4f81616b0c565b614e5a838690616cd9565b614e76614e718487614e6b5f611bb8565b91611b96565b611bab565b614ea8614ea27f0000000000000000000000000000000000000000000000000000000000000000610299565b91610299565b036150e457614ed2614ec434614ebe60026138ce565b90613e43565b614ecc611148565b90613e8c565b614edd348290611b5d565b9080614ef1614eeb5f611bb8565b916102c8565b11615087575b50614f0181616f4f565b6020614f34614f2f7f0000000000000000000000000000000000000000000000000000000000000000611516565b611522565b9163095ea7b392614f815f614f687f0000000000000000000000000000000000000000000000000000000000000000610ba1565b9395614f8c614f7561027c565b978896879586946113ea565b84526004840161152e565b03925af1801561508257615056575b50614fc57f0000000000000000000000000000000000000000000000000000000000000000610ba1565b9163b6f9de9592614fd85f919491611bb8565b919496959295843b15615051575f966150039461500e92614ff761027c565b9a8b998a9889976113ea565b875260048701613f57565b03925af1801561504c57615020575b50565b61503f905f3d8111615045575b61503781836113c1565b8101906121b6565b5f61501d565b503d61502d565b611440565b61139f565b6150769060203d811161507b575b61506e81836113c1565b8101906114ba565b614f9b565b503d615064565b611440565b5f806150be926150976001613ec2565b906150a061027c565b90816150ab81613ee3565b03925af16150b7613f2e565b5015610656565b6150c8575f614ef7565b5f63b12d13eb60e01b8152806150e060048201610a8f565b0390fd5b5f6320db826760e01b8152806150fc60048201610a8f565b0390fd5b9061510d94939291614e24565b565b906151289897969594939291615123616a8a565b615134565b9091615132616ac3565b565b9796939795949295505061514786616b0c565b615152818690616e07565b61517b7f0000000000000000000000000000000000000000000000000000000000000000610d65565b602063e6a439059183906151a189946151ac61519561027c565b968795869485946113ea565b84526004840161141d565b03915afa908115615419575f916153eb575b50806151da6151d46151cf5f61146f565b610299565b91610299565b146153cf578060206151f46151ef8b94611487565b611493565b6323b872dd906152215f339361522c61520c3061149f565b9861521561027c565b998a97889687956113ea565b8552600485016114d8565b03925af19081156153ca5761524f9261524a9261539e575b50611516565b611522565b91602063095ea7b3936152817f0000000000000000000000000000000000000000000000000000000000000000610ba1565b9061529f5f8c976152aa61529361027c565b998a96879586946113ea565b84526004840161152e565b03925af190811561539957604097615313955f9561531e9461536d575b506152f17f0000000000000000000000000000000000000000000000000000000000000000610ba1565b9763baa2abde95999b939091929361530761027c565b9c8d9b8c9a8b996113ea565b89526004890161158d565b03925af1908115615368575f80919092615338575b509091565b905061535b915060403d8111615361575b61535381836113c1565b810190611560565b5f615333565b503d615349565b611440565b61538d9060203d8111615392575b61538581836113c1565b8101906114ba565b6152c7565b503d61537b565b611440565b6153be9060203d81116153c3575b6153b681836113c1565b8101906114ba565b615244565b503d6153ac565b611440565b5f63317f12fd60e21b8152806153e760048201610a8f565b0390fd5b61540c915060203d8111615412575b61540481836113c1565b8101906113ff565b5f6151be565b503d6153fa565b611440565b9061543e969594939291615430611377565b615438611377565b9061510f565b9091565b61544a612ca2565b506154747f0000000000000000000000000000000000000000000000000000000000000000610d65565b90565b905f91615482611aff565b506154cf6154af7f0000000000000000000000000000000000000000000000000000000000000000610ba1565b916154da63d06ca61f9194966154c361027c565b978896879586956113ea565b8552600485016120c5565b03915afa908115615512575f916154f0575b5090565b61550c91503d805f833e61550481836113c1565b810190611c80565b5f6154ec565b611440565b906155339b9a99989796959493929161552e616a8a565b61553f565b909161553d616ac3565b565b9b99949697939598919b9a929a505061555787616b0c565b6155608b616b77565b8a61559361558d7f0000000000000000000000000000000000000000000000000000000000000000610299565b91610299565b146159f6576155c17f0000000000000000000000000000000000000000000000000000000000000000610d65565b602063e6a43905918d906156077f0000000000000000000000000000000000000000000000000000000000000000946156126155fb61027c565b968795869485946113ea565b84526004840161141d565b03915afa9081156159f1575f916159c3575b50928361564161563b6156365f61146f565b610299565b91610299565b146159a7575f146159a1575f195b9361566161565c85611487565b611493565b9063d505accf9233936156733061149f565b978b929396853b1561599c575f9761569f9589956156aa9461569361027c565b9d8e9b8c9a8b996113ea565b8952600489016121df565b03925af191821561599757889261596b575b5060206156d06156cb83611487565b611493565b6323b872dd906156fd5f33936157086156e83061149f565b986156f161027c565b998a97889687956113ea565b8552600485016114d8565b03925af19081156159665761572b926157269261593a575b50611516565b611522565b602063095ea7b39161575c7f0000000000000000000000000000000000000000000000000000000000000000610ba1565b9061577a5f8b9561578561576e61027c565b978896879586946113ea565b84526004840161152e565b03925af1801561593557604094615815925f92615909575b506158206157ca7f0000000000000000000000000000000000000000000000000000000000000000610ba1565b9463baa2abde928c977f00000000000000000000000000000000000000000000000000000000000000009c926157ff3061149f565b929361580961027c565b9e8f9b8c9a8b996113ea565b89526004890161158d565b03925af1928315615904575f809190946158cb575b50615844615849919495611516565b611522565b90602063a9059cbb9282906158715f899661587c61586561027c565b988996879586946113ea565b84526004840161152e565b03925af19182156158c6576158989261589a575b508390616bd8565b565b6158ba9060203d81116158bf575b6158b281836113c1565b8101906114ba565b615890565b503d6158a8565b611440565b615844945061584991506158f59060403d81116158fd575b6158ed81836113c1565b810190611560565b915093615835565b503d6158e3565b611440565b6159299060203d811161592e575b61592181836113c1565b8101906114ba565b61579d565b503d615917565b611440565b61595a9060203d811161595f575b61595281836113c1565b8101906114ba565b615720565b503d615948565b611440565b61598a905f3d8111615990575b61598281836113c1565b8101906121b6565b5f6156bc565b503d615978565b611440565b61139f565b8961564f565b5f63317f12fd60e21b8152806159bf60048201610a8f565b0390fd5b6159e4915060203d81116159ea575b6159dc81836113c1565b8101906113ff565b5f615624565b503d6159d2565b611440565b5f63100dac0560e11b815280615a0e60048201610a8f565b0390fd5b90615a35999897969594939291615a27611377565b615a2f611377565b90615517565b9091565b615a4a90615a45616ea2565b615a96565b565b615a5590610b95565b90565b90615a6960018060a01b03916138db565b9181191691161790565b90565b90615a8b615a86615a9292615a4c565b615a73565b8254615a58565b9055565b80615ab1615aab615aa65f61146f565b610299565b91610299565b14615b1757615b1590615ac46001613ec2565b81615af8615af27faaebcf1bfa00580e41d966056b48521fa9f202645c86d4ddf28113e617c1b1d393615a4c565b91615a4c565b91615b0161027c565b80615b0b81610a8f565b0390a36001615a76565b565b5f63d92e233d60e01b815280615b2f60048201610a8f565b0390fd5b615b3c90615a39565b565b90615b599a999897969594939291615b54616a8a565b615c18565b909192615b64616ac3565b565b9091606082840312615b9b57615b98615b81845f8501611551565b93615b8f8160208601611551565b93604001611551565b90565b610286565b959391989796949290986101008701995f8801615bbc916108ba565b60208701615bc9916108ba565b60408601615bd691610352565b60608501615be391610352565b60808401615bf091610352565b60a08301615bfd91610352565b60c08201615c0a916108ba565b60e001615c1691610352565b565b9a979994929a98939598505050615c2e83616b0c565b615c39898590616e07565b615c4a615c458a611516565b611522565b9060206323b872dd923390615c7b5f615c623061149f565b96615c8687615c6f61027c565b998a97889687956113ea565b8552600485016114d8565b03925af19182156160de5788926160b2575b506020615cac615ca787611516565b611522565b6323b872dd90615cd95f3393615ce4615cc43061149f565b98615ccd61027c565b998a97889687956113ea565b8552600485016114d8565b03925af19081156160ad57615d0a92615d0392616081575b508a616d19565b9684616d19565b93615d1c615d178a611516565b611522565b602063095ea7b391615d4d7f0000000000000000000000000000000000000000000000000000000000000000610ba1565b90615d6b5f8c95615d76615d5f61027c565b978896879586946113ea565b84526004840161152e565b03925af1801561607c57616050575b50615d97615d9285611516565b611522565b602063095ea7b391615dc87f0000000000000000000000000000000000000000000000000000000000000000610ba1565b90615de65f8a95615df1615dda61027c565b978896879586946113ea565b84526004840161152e565b03925af1801561604b5761601f575b507f0000000000000000000000000000000000000000000000000000000000000000615e2b90610ba1565b9263e8e33700918a9186948a9b899390919293615e4661027c565b9d8e98615e538a996113ea565b89526004890197615e6398615ba0565b03815a6060945f91f193841561601a575f808091979096615fe1575b5094959681615e96615e908a6102c8565b916102c8565b11615f4e575b505081615eb1615eab876102c8565b916102c8565b11615ebb575b5050565b615ece615ec9602092611516565b611522565b9163a9059cbb92615efd5f615ee533948a90611b5d565b95615f08615ef161027c565b978896879586946113ea565b84526004840161152e565b03925af18015615f4957615f1d575b80615eb7565b615f3d9060203d8111615f42575b615f3581836113c1565b8101906114ba565b615f17565b503d615f2b565b611440565b615f61615f5c602092611516565b611522565b9163a9059cbb92615f905f615f7833948d90611b5d565b95615f9b615f8461027c565b978896879586946113ea565b84526004840161152e565b03925af18015615fdc57615fb0575b80615e9c565b615fd09060203d8111615fd5575b615fc881836113c1565b8101906114ba565b615faa565b503d615fbe565b611440565b9195505061600791955060603d8111616013575b615fff81836113c1565b810190615b66565b5f969296959195615e7f565b503d615ff5565b611440565b61603f9060203d8111616044575b61603781836113c1565b8101906114ba565b615e00565b503d61602d565b611440565b6160709060203d8111616075575b61606881836113c1565b8101906114ba565b615d85565b503d61605e565b611440565b6160a19060203d81116160a6575b61609981836113c1565b8101906114ba565b615cfc565b503d61608f565b611440565b6160d29060203d81116160d7575b6160ca81836113c1565b8101906114ba565b615c98565b503d6160c0565b611440565b9061610c979695949392916160f6611377565b6160fe611377565b616106611377565b91615b3e565b909192565b6161229061611d616ea2565b616124565b565b8061613f6161396161345f61146f565b610299565b91610299565b1461614f5761614d90616ef0565b565b61617261615b5f61146f565b5f918291631e4fbdf760e01b8352600483016108c7565b0390fd5b61617f90616111565b565b9061619a9897969594939291616195616a8a565b6161a7565b9091926161a5616ac3565b565b9895979392985050506161b982616b0c565b6161c287616b77565b866161f56161ef7f0000000000000000000000000000000000000000000000000000000000000000610299565b91610299565b146166845761620b61620688611516565b611522565b9060206323b872dd92339061623c5f6162233061149f565b966162478761623061027c565b998a97889687956113ea565b8552600485016114d8565b03925af191821561667f5761626292616653575b5087616d19565b9361628861627a3461627460026138ce565b90613e43565b616282611148565b90613e8c565b92616294348590611b5d565b93806162a86162a25f611bb8565b916102c8565b116165f6575b506162b884616f4f565b6162c96162c489611516565b611522565b602063095ea7b3916162fa7f0000000000000000000000000000000000000000000000000000000000000000610ba1565b906163185f8b9561632361630c61027c565b978896879586946113ea565b84526004840161152e565b03925af180156165f1576165c5575b5061636461635f7f0000000000000000000000000000000000000000000000000000000000000000611516565b611522565b602063095ea7b3916163957f0000000000000000000000000000000000000000000000000000000000000000610ba1565b906163b35f89956163be6163a761027c565b978896879586946113ea565b84526004840161152e565b03925af180156165c057616594575b507f00000000000000000000000000000000000000000000000000000000000000006163f890610ba1565b9263e8e337009189917f000000000000000000000000000000000000000000000000000000000000000094899a88939091929361643361027c565b9c8d986164408a996113ea565b8952600489019761645098615ba0565b03815a6060945f91f192831561658f575f808091969095616556575b509394958161648361647d896102c8565b916102c8565b116164c3575b50508061649e616498866102c8565b916102c8565b116164a7575b50565b6164bd906164b733918690611b5d565b90616bd8565b5f6164a4565b6164d66164d1602092611516565b611522565b9163a9059cbb926165055f6164ed33948c90611b5d565b956165106164f961027c565b978896879586946113ea565b84526004840161152e565b03925af1801561655157616525575b80616489565b6165459060203d811161654a575b61653d81836113c1565b8101906114ba565b61651f565b503d616533565b611440565b9194505061657c91945060603d8111616588575b61657481836113c1565b810190615b66565b5f95929594919461646c565b503d61656a565b611440565b6165b49060203d81116165b9575b6165ac81836113c1565b8101906114ba565b6163cd565b503d6165a2565b611440565b6165e59060203d81116165ea575b6165dd81836113c1565b8101906114ba565b616332565b503d6165d3565b611440565b5f8061662d926166066001613ec2565b9061660f61027c565b908161661a81613ee3565b03925af1616626613f2e565b5015610656565b616637575f6162ae565b5f63b12d13eb60e01b81528061664f60048201610a8f565b0390fd5b6166739060203d8111616678575b61666b81836113c1565b8101906114ba565b61625b565b503d616661565b611440565b5f63100dac0560e11b81528061669c60048201610a8f565b0390fd5b906166c795949392916166b1611377565b6166b9611377565b6166c1611377565b91616181565b909192565b906166e295949392916166dd616a8a565b6166ed565b906166eb616ac3565b565b959490929395506166fd81616b0c565b616708828590616cd9565b61672461671f83866167195f611bb8565b91611b96565b611bab565b6167566167507f0000000000000000000000000000000000000000000000000000000000000000610299565b91610299565b036169d4576167806167723461676c60026138ce565b90613e43565b61677a611148565b90613e8c565b9561678c348890611b5d565b96806167a061679a5f611bb8565b916102c8565b11616977575b506167b087616f4f565b6167e16167dc7f0000000000000000000000000000000000000000000000000000000000000000611516565b611522565b93602063095ea7b3956168137f0000000000000000000000000000000000000000000000000000000000000000610ba1565b906168315f8c9961683c61682561027c565b9b8c96879586946113ea565b84526004840161152e565b03925af1918215616972575f956168ac93616946575b506168b761687f7f0000000000000000000000000000000000000000000000000000000000000000610ba1565b9163fb3bdb419561689289949794611bb8565b9497999190916168a061027c565b9a8b998a9889976113ea565b875260048701613f57565b03925af1908115616941575f9161691f575b50916168e66168e1846168db5f611bb8565b90611d9d565b611dbd565b90806168fa6168f4846102c8565b916102c8565b11616904575b5050565b616912616918923392611b5d565b90616bd8565b5f80616900565b61693b91503d805f833e61693381836113c1565b810190611c80565b5f6168c9565b611440565b6169669060203d811161696b575b61695e81836113c1565b8101906114ba565b616852565b503d616954565b611440565b5f806169ae926169876001613ec2565b9061699061027c565b908161699b81613ee3565b03925af16169a7613f2e565b5015610656565b6169b8575f6167a6565b5f63b12d13eb60e01b8152806169d060048201610a8f565b0390fd5b5f6320db826760e01b8152806169ec60048201610a8f565b0390fd5b90616a0594939291616a00611aff565b6166cc565b90565b33616a3b616a357f0000000000000000000000000000000000000000000000000000000000000000610299565b91610299565b03616a4257565b5f63b12d13eb60e01b815280616a5a60048201610a8f565b0390fd5b90565b616a75616a70616a7a92616a5e565b610b76565b6102c8565b90565b616a876002616a61565b90565b616a92616fff565b616ab4616a9d616a7d565b5f616aae616aa9617078565b61708c565b01613915565b565b616ac06001611b2d565b90565b616ae5616ace616ab6565b5f616adf616ada617078565b61708c565b01613915565b565b616af6616afc919392936102c8565b926102c8565b8201809211616b0757565b611b49565b80616b1f616b19426102c8565b916102c8565b10908115616b4b575b50616b2f57565b5f631da7447960e21b815280616b4760048201610a8f565b0390fd5b9050616b70616b6a616b6542616b5f610fc1565b90616ae7565b6102c8565b916102c8565b115f616b28565b616b91616b8b616b865f61146f565b610299565b91610299565b14616b9857565b5f63d92e233d60e01b815280616bb060048201610a8f565b0390fd5b616bbd90610b79565b90565b616bc990616bb4565b90565b616bd590610b95565b90565b90616c0a616c057f0000000000000000000000000000000000000000000000000000000000000000616bc0565b616bcc565b90632e1a7d4d81833b15616cd457616c4193616c365f8094616c2a61027c565b978895869485936113ea565b8352600483016103f9565b03925af1908115616ccf57616c81935f938493616ca3575b5090616c6361027c565b9081616c6e81613ee3565b03925af1616c7a613f2e565b5015610656565b616c8757565b5f63b12d13eb60e01b815280616c9f60048201610a8f565b0390fd5b616cc290843d8111616cc8575b616cba81836113c1565b8101906121b6565b5f616c59565b503d616cb0565b611440565b61139f565b90616ce391611b26565b616cf6616cf06002616a61565b916102c8565b10616cfd57565b5f6320db826760e01b815280616d1560048201610a8f565b0390fd5b616d21611377565b50616d47616d3983616d3360026138ce565b90613e43565b616d41611148565b90613e8c565b9081616d5b616d555f611bb8565b916102c8565b11616d6e575b50616d6b91611b5d565b90565b616d7a616d7f91611516565b611522565b91602063a9059cbb93616d926001613ec2565b90616db05f8697616dbb616da461027c565b998a96879586946113ea565b84526004840161152e565b03925af1928315616e0257616d6b93616dd6575b5091616d61565b616df69060203d8111616dfb575b616dee81836113c1565b8101906114ba565b616dcf565b503d616de4565b611440565b80616e22616e1c616e175f61146f565b610299565b91610299565b148015616e80575b616e6457616e3b616e419192610299565b91610299565b14616e4857565b5f63100dac0560e11b815280616e6060048201610a8f565b0390fd5b5f63d92e233d60e01b815280616e7c60048201610a8f565b0390fd5b5081616e9c616e96616e915f61146f565b610299565b91610299565b14616e2a565b616eaa61468d565b616ec3616ebd616eb861708f565b610299565b91610299565b03616eca57565b616eec616ed561708f565b5f91829163118cdaa760e01b8352600483016108c7565b0390fd5b616ef95f613ec2565b616f03825f615a76565b90616f37616f317f8be0079c531659141344cd1fd0a4f28419497f9722a3daafe3b4186f6b6457e093615a4c565b91615a4c565b91616f4061027c565b80616f4a81610a8f565b0390a3565b616f80616f7b7f0000000000000000000000000000000000000000000000000000000000000000616bc0565b616bcc565b9063d0e30db0909190813b15616ffa575f91616fa891616f9e61027c565b94859384926113ea565b825281616fb760048201610a8f565b03925af18015616ff557616fc9575b50565b616fe8905f3d8111616fee575b616fe081836113c1565b8101906121b6565b5f616fc6565b503d616fd6565b611440565b61139f565b6170076170a0565b61700d57565b5f633ee5aeb560e01b81528061702560048201610a8f565b0390fd5b5f90565b90565b61704461703f6170499261702d565b6138db565b6106a7565b90565b6170757f9b779b17422d0df92223018b32b4d1fa46e071723d6817e2486d003becc55f00617030565b90565b617080617029565b5061708961704c565b90565b90565b617097612ca2565b503390565b5f90565b6170a861709c565b506170c35f6170bd6170b8617078565b61708c565b016138ce565b6170dc6170d66170d1616a7d565b6102c8565b916102c8565b149056fea26469706673582212202114ddbd7662103adb308bc2ebac655762c84e96683a9ad2308f35e7a8e25c4f64736f6c634300081e0033","linkReferences":{}},"methodIdentifiers":{"BPS_DENOMINATOR()":"e1a45218","MAX_DEADLINE_WINDOW()":"c2b86d60","MAX_FEE_BPS()":"d55be8c6","WETH()":"ad5c4648","addLiquidity(address,address,uint256,uint256,uint256,uint256,address,uint256)":"e8e33700","addLiquidityETH(address,uint256,uint256,uint256,address,uint256)":"f305d719","createPairIfNotExists(address,address)":"4cd5ece1","factory()":"c45a0155","feeBps()":"24a9d853","feeRecipient()":"46904840","getAmountIn(uint256,uint256,uint256)":"85f8c259","getAmountOut(uint256,uint256,uint256)":"054d50d4","getAmountsIn(uint256,address[])":"1f00ca74","getAmountsOut(uint256,address[])":"d06ca61f","owner()":"8da5cb5b","quote(uint256,uint256,uint256)":"ad615dec","removeLiquidity(address,address,uint256,uint256,uint256,address,uint256)":"baa2abde","removeLiquidityETH(address,uint256,uint256,uint256,address,uint256)":"02751cec","removeLiquidityETHSupportingFeeOnTransferTokens(address,uint256,uint256,uint256,address,uint256)":"af2979eb","removeLiquidityETHWithPermit(address,uint256,uint256,uint256,address,uint256,bool,uint8,bytes32,bytes32)":"ded9382a","removeLiquidityETHWithPermitSupportingFeeOnTransferTokens(address,uint256,uint256,uint256,address,uint256,bool,uint8,bytes32,bytes32)":"5b0d5984","removeLiquidityWithPermit(address,address,uint256,uint256,uint256,address,uint256,bool,uint8,bytes32,bytes32)":"2195995c","renounceOwnership()":"715018a6","setFeeBps(uint256)":"72c27b62","setFeeRecipient(address)":"e74b981b","swapETHForExactTokens(uint256,address[],address,uint256)":"fb3bdb41","swapExactETHForTokens(uint256,address[],address,uint256)":"7ff36ab5","swapExactETHForTokensSupportingFeeOnTransferTokens(uint256,address[],address,uint256)":"b6f9de95","swapExactTokensForETH(uint256,uint256,address[],address,uint256)":"18cbafe5","swapExactTokensForETHSupportingFeeOnTransferTokens(uint256,uint256,address[],address,uint256)":"791ac947","swapExactTokensForTokens(uint256,uint256,address[],address,uint256)":"38ed1739","swapExactTokensForTokensSupportingFeeOnTransferTokens(uint256,uint256,address[],address,uint256)":"5c11d795","swapTokensForExactETH(uint256,uint256,address[],address,uint256)":"4a25d94a","swapTokensForExactTokens(uint256,uint256,address[],address,uint256)":"8803dbee","transferOwnership(address)":"f2fde38b","uniswapFactory()":"8bdb2afa","uniswapRouter()":"735de9f7"},"id":4}